:07006600F4F5A07F2C7E01E0
:10006D007C007D68120098EF1FAC0670011E4C706D
:02007D00F62269
:10007F00AB07EB14FF7401A807088002C333D8FC49
:09008F00120066E412006780E92A
:02004800AB0704
:10004A0075A0FEE4FAEAC39B50117401A802088065
:0B005A0002C333D8FC1200660A80EAE3
:010065002278
:10000300AB0775A0FE120069EB64016003EB700897
:0E00130075A0FF1200698029EBC394024026FD
:10002100E4F508EB14F509E4F508E508C395095072
:1000310012AFA07801EF08800123D8FD12006705F7
:060041000880E7E4FEFF69
:010047002296
:0C00AA007F031200037F0612004880F460
:030000000200B645
:0C00B600787FE4F6D8FD7581090200AAED
:10009800EF8DF0A4A8F0CF8CF0A428CE8DF0A42E7C
:0200A800FE2236
:00000001FF
